{
  "abi": [
    {
      "inputs": [],
      "stateMutability": "payable",
      "type": "constructor"
    },
    {
      "anonymous": false,
      "inputs": [
        {
          "indexed": true,
          "internalType": "address",
          "name": "owner",
          "type": "address"
        },
        {
          "indexed": true,
          "internalType": "address",
          "name": "approved",
          "type": "address"
        },
        {
          "indexed": true,
          "internalType": "uint256",
          "name": "tokenId",
          "type": "uint256"
        }
      ],
      "name": "Approval",
      "type": "event"
    },
    {
      "anonymous": false,
      "inputs": [
        {
          "indexed": true,
          "internalType": "address",
          "name": "owner",
          "type": "address"
        },
        {
          "indexed": true,
          "internalType": "address",
          "name": "operator",
          "type": "address"
        },
        {
          "indexed": false,
          "internalType": "bool",
          "name": "approved",
          "type": "bool"
        }
      ],
      "name": "ApprovalForAll",
      "type": "event"
    },
    {
      "anonymous": false,
      "inputs": [
        {
          "indexed": true,
          "internalType": "address",
          "name": "previousOwner",
          "type": "address"
        },
        {
          "indexed": true,
          "internalType": "address",
          "name": "newOwner",
          "type": "address"
        }
      ],
      "name": "OwnershipTransferred",
      "type": "event"
    },
    {
      "anonymous": false,
      "inputs": [
        {
          "indexed": true,
          "internalType": "address",
          "name": "from",
          "type": "address"
        },
        {
          "indexed": true,
          "internalType": "address",
          "name": "to",
          "type": "address"
        },
        {
          "indexed": true,
          "internalType": "uint256",
          "name": "tokenId",
          "type": "uint256"
        }
      ],
      "name": "Transfer",
      "type": "event"
    },
    {
      "inputs": [
        {
          "internalType": "address",
          "name": "to",
          "type": "address"
        },
        {
          "internalType": "uint256",
          "name": "tokenId",
          "type": "uint256"
        }
      ],
      "name": "approve",
      "outputs": [],
      "stateMutability": "nonpayable",
      "type": "function"
    },
    {
      "inputs": [
        {
          "internalType": "address",
          "name": "owner",
          "type": "address"
        }
      ],
      "name": "balanceOf",
      "outputs": [
        {
          "internalType": "uint256",
          "name": "",
          "type": "uint256"
        }
      ],
      "stateMutability": "view",
      "type": "function"
    },
    {
      "inputs": [
        {
          "internalType": "uint256",
          "name": "tokenId_",
          "type": "uint256"
        }
      ],
      "name": "burn",
      "outputs": [],
      "stateMutability": "nonpayable",
      "type": "function"
    },
    {
      "inputs": [
        {
          "internalType": "uint256",
          "name": "tokenId_",
          "type": "uint256"
        }
      ],
      "name": "burnAfterTransfer",
      "outputs": [],
      "stateMutability": "nonpayable",
      "type": "function"
    },
    {
      "inputs": [
        {
          "internalType": "uint256",
          "name": "tokenId",
          "type": "uint256"
        }
      ],
      "name": "getApproved",
      "outputs": [
        {
          "internalType": "address",
          "name": "",
          "type": "address"
        }
      ],
      "stateMutability": "view",
      "type": "function"
    },
    {
      "inputs": [
        {
          "internalType": "uint256",
          "name": "tokenId_",
          "type": "uint256"
        },
        {
          "internalType": "string",
          "name": "universitas_",
          "type": "string"
        }
      ],
      "name": "getNim",
      "outputs": [
        {
          "components": [
            {
              "internalType": "string",
              "name": "nimMahasiswa",
              "type": "string"
            },
            {
              "internalType": "string",
              "name": "universitas",
              "type": "string"
            },
            {
              "internalType": "string",
              "name": "kodeProdi",
              "type": "string"
            },
            {
              "internalType": "uint256",
              "name": "expired",
              "type": "uint256"
            },
            {
              "internalType": "bool",
              "name": "isBurned",
              "type": "bool"
            },
            {
              "internalType": "address",
              "name": "walletMahasiswa",
              "type": "address"
            }
          ],
          "internalType": "struct NftNim.EntityNim",
          "name": "mahasiswa",
          "type": "tuple"
        }
      ],
      "stateMutability": "view",
      "type": "function"
    },
    {
      "inputs": [
        {
          "internalType": "address",
          "name": "owner",
          "type": "address"
        },
        {
          "internalType": "address",
          "name": "operator",
          "type": "address"
        }
      ],
      "name": "isApprovedForAll",
      "outputs": [
        {
          "internalType": "bool",
          "name": "",
          "type": "bool"
        }
      ],
      "stateMutability": "view",
      "type": "function"
    },
    {
      "inputs": [
        {
          "internalType": "string",
          "name": "uri_",
          "type": "string"
        },
        {
          "internalType": "string",
          "name": "nim_",
          "type": "string"
        },
        {
          "internalType": "string",
          "name": "universitas_",
          "type": "string"
        },
        {
          "internalType": "string",
          "name": "kodeProdi_",
          "type": "string"
        }
      ],
      "name": "mint",
      "outputs": [
        {
          "internalType": "uint256",
          "name": "",
          "type": "uint256"
        }
      ],
      "stateMutability": "nonpayable",
      "type": "function"
    },
    {
      "inputs": [],
      "name": "name",
      "outputs": [
        {
          "internalType": "string",
          "name": "",
          "type": "string"
        }
      ],
      "stateMutability": "view",
      "type": "function"
    },
    {
      "inputs": [],
      "name": "owner",
      "outputs": [
        {
          "internalType": "address",
          "name": "",
          "type": "address"
        }
      ],
      "stateMutability": "view",
      "type": "function"
    },
    {
      "inputs": [
        {
          "internalType": "uint256",
          "name": "tokenId",
          "type": "uint256"
        }
      ],
      "name": "ownerOf",
      "outputs": [
        {
          "internalType": "address",
          "name": "",
          "type": "address"
        }
      ],
      "stateMutability": "view",
      "type": "function"
    },
    {
      "inputs": [],
      "name": "renounceOwnership",
      "outputs": [],
      "stateMutability": "nonpayable",
      "type": "function"
    },
    {
      "inputs": [
        {
          "internalType": "address",
          "name": "from",
          "type": "address"
        },
        {
          "internalType": "address",
          "name": "to",
          "type": "address"
        },
        {
          "internalType": "uint256",
          "name": "tokenId",
          "type": "uint256"
        }
      ],
      "name": "safeTransferFrom",
      "outputs": [],
      "stateMutability": "nonpayable",
      "type": "function"
    },
    {
      "inputs": [
        {
          "internalType": "address",
          "name": "from",
          "type": "address"
        },
        {
          "internalType": "address",
          "name": "to",
          "type": "address"
        },
        {
          "internalType": "uint256",
          "name": "tokenId",
          "type": "uint256"
        },
        {
          "internalType": "bytes",
          "name": "data",
          "type": "bytes"
        }
      ],
      "name": "safeTransferFrom",
      "outputs": [],
      "stateMutability": "nonpayable",
      "type": "function"
    },
    {
      "inputs": [
        {
          "internalType": "address",
          "name": "operator",
          "type": "address"
        },
        {
          "internalType": "bool",
          "name": "approved",
          "type": "bool"
        }
      ],
      "name": "setApprovalForAll",
      "outputs": [],
      "stateMutability": "nonpayable",
      "type": "function"
    },
    {
      "inputs": [
        {
          "internalType": "bytes4",
          "name": "interfaceId",
          "type": "bytes4"
        }
      ],
      "name": "supportsInterface",
      "outputs": [
        {
          "internalType": "bool",
          "name": "",
          "type": "bool"
        }
      ],
      "stateMutability": "view",
      "type": "function"
    },
    {
      "inputs": [],
      "name": "symbol",
      "outputs": [
        {
          "internalType": "string",
          "name": "",
          "type": "string"
        }
      ],
      "stateMutability": "view",
      "type": "function"
    },
    {
      "inputs": [
        {
          "internalType": "uint256",
          "name": "tokenId",
          "type": "uint256"
        }
      ],
      "name": "tokenURI",
      "outputs": [
        {
          "internalType": "string",
          "name": "",
          "type": "string"
        }
      ],
      "stateMutability": "view",
      "type": "function"
    },
    {
      "inputs": [
        {
          "internalType": "address",
          "name": "from",
          "type": "address"
        },
        {
          "internalType": "address",
          "name": "to",
          "type": "address"
        },
        {
          "internalType": "uint256",
          "name": "tokenId",
          "type": "uint256"
        }
      ],
      "name": "transferFrom",
      "outputs": [],
      "stateMutability": "nonpayable",
      "type": "function"
    },
    {
      "inputs": [
        {
          "internalType": "address",
          "name": "to_",
          "type": "address"
        },
        {
          "internalType": "uint256",
          "name": "tokenId_",
          "type": "uint256"
        },
        {
          "internalType": "string",
          "name": "nim_",
          "type": "string"
        },
        {
          "internalType": "string",
          "name": "universitas_",
          "type": "string"
        }
      ],
      "name": "transferNim",
      "outputs": [
        {
          "internalType": "uint256",
          "name": "token",
          "type": "uint256"
        }
      ],
      "stateMutability": "nonpayable",
      "type": "function"
    },
    {
      "inputs": [
        {
          "internalType": "address",
          "name": "newOwner",
          "type": "address"
        }
      ],
      "name": "transferOwnership",
      "outputs": [],
      "stateMutability": "nonpayable",
      "type": "function"
    }
  ],
  "bytecode": {
    "object": "0x600c60809081526b4e696d4d616861736973776160a01b60a052610100604052600560c0908152644e494d485360d81b60e05260006200004083826200018f565b5060016200004f82826200018f565b5050506200006c620000666200009460201b60201c565b62000098565b600754600980546001600160a01b0319166001600160a01b039092169190911790556200025b565b3390565b600780546001600160a01b038381166001600160a01b0319831681179093556040519116919082907f8be0079c531659141344cd1fd0a4f28419497f9722a3daafe3b4186f6b6457e090600090a35050565b634e487b7160e01b600052604160045260246000fd5b600181811c908216806200011557607f821691505b6020821081036200013657634e487b7160e01b600052602260045260246000fd5b50919050565b601f8211156200018a57600081815260208120601f850160051c81016020861015620001655750805b601f850160051c820191505b81811015620001865782815560010162000171565b5050505b505050565b81516001600160401b03811115620001ab57620001ab620000ea565b620001c381620001bc845462000100565b846200013c565b602080601f831160018114620001fb5760008415620001e25750858301515b600019600386901b1c1916600185901b17855562000186565b600085815260208120601f198616915b828110156200022c578886015182559484019460019091019084016200020b565b50858210156200024b5787850151600019600388901b60f8161c191681555b5050505050600190811b01905550565b612db5806200026b6000396000f3fe608060405234801561001057600080fd5b50600436106101775760003560e01c8063715018a6116100d85780639d79b7561161008c578063c87b56dd11610066578063c87b56dd14610320578063e985e9c514610333578063f2fde38b1461037c57600080fd5b80639d79b756146102da578063a22cb465146102fa578063b88d4fde1461030d57600080fd5b806395d89b41116100bd57806395d89b41146102ac578063963d2516146102b45780639b41d33f146102c757600080fd5b8063715018a6146102865780638da5cb5b1461028e57600080fd5b806323b872dd1161012f57806342966c681161011457806342966c681461024d5780636352211e1461026057806370a082311461027357600080fd5b806323b872dd1461022757806342842e0e1461023a57600080fd5b806306fdde031161016057806306fdde03146101c5578063081812fc146101da578063095ea7b31461021257600080fd5b806301ffc9a71461017c57806302341c71146101a4575b600080fd5b61018f61018a366004612483565b61038f565b60405190151581526020015b60405180910390f35b6101b76101b2366004612583565b610474565b60405190815260200161019b565b6101cd6105a5565b60405161019b91906126d7565b6101ed6101e83660046126ea565b610637565b60405173ffffffffffffffffffffffffffffffffffffffff909116815260200161019b565b61022561022036600461272c565b61066b565b005b610225610235366004612756565b6107fc565b610225610248366004612756565b61089d565b61022561025b3660046126ea565b6108b8565b6101ed61026e3660046126ea565b610905565b6101b7610281366004612792565b610991565b610225610a5f565b60075473ffffffffffffffffffffffffffffffffffffffff166101ed565b6101cd610a73565b6102256102c23660046126ea565b610a82565b6101b76102d53660046127ad565b610a8a565b6102ed6102e836600461282b565b610de0565b60405161019b9190612872565b61022561030836600461292b565b611122565b61022561031b366004612967565b611131565b6101cd61032e3660046126ea565b6111d9565b61018f6103413660046129d7565b73ffffffffffffffffffffffffffffffffffffffff918216600090815260056020908152604080832093909416825291909152205460ff1690565b61022561038a366004612792565b6112e1565b60007fffffffff0000000000000000000000000000000000000000000000000000000082167f80ac58cd00000000000000000000000000000000000000000000000000000000148061042257507fffffffff0000000000000000000000000000000000000000000000000000000082167f5b5e139f00000000000000000000000000000000000000000000000000000000145b8061046e57507f01ffc9a7000000000000000000000000000000000000000000000000000000007fffffffff000000000000000000000000000000000000000000000000000000008316145b92915050565b60008061048060085490565b6009549091506104a69073ffffffffffffffffffffffffffffffffffffffff1682611398565b6104e68188888080601f0160208091040260200160405190810160405280939291908181526020018383808284376000920191909152506113b292505050565b6000818152600b602052604090206104fe8682612aab565b506000818152600b6020526040902060010161051a8582612aab565b506000818152600b602052604090206002016105368482612aab565b506000818152600b6020526040902060040180547fffffffffffffffffffffffffffffffffffffffffffffffffffffffffffffff0016905561057b4262dd7c00612bf4565b6000828152600b602052604090206003015561059b600880546001019055565b9695505050505050565b6060600080546105b490612a0a565b80601f01602080910402602001604051908101604052809291908181526020018280546105e090612a0a565b801561062d5780601f106106025761010080835404028352916020019161062d565b820191906000526020600020905b81548152906001019060200180831161061057829003601f168201915b5050505050905090565b60006106428261147b565b5060009081526004602052604090205473ffffffffffffffffffffffffffffffffffffffff1690565b600061067682610905565b90508073ffffffffffffffffffffffffffffffffffffffff168373ffffffffffffffffffffffffffffffffffffffff1603610738576040517f08c379a000000000000000000000000000000000000000000000000000000000815260206004820152602160248201527f4552433732313a20617070726f76616c20746f2063757272656e74206f776e6560448201527f720000000000000000000000000000000000000000000000000000000000000060648201526084015b60405180910390fd5b3373ffffffffffffffffffffffffffffffffffffffff8216148061076157506107618133610341565b6107ed576040517f08c379a000000000000000000000000000000000000000000000000000000000815260206004820152603d60248201527f4552433732313a20617070726f76652063616c6c6572206973206e6f7420746f60448201527f6b656e206f776e6572206f7220617070726f76656420666f7220616c6c000000606482015260840161072f565b6107f78383611506565b505050565b61080633826115a6565b610892576040517f08c379a000000000000000000000000000000000000000000000000000000000815260206004820152602d60248201527f4552433732313a2063616c6c6572206973206e6f7420746f6b656e206f776e6560448201527f72206f7220617070726f76656400000000000000000000000000000000000000606482015260840161072f565b6107f7838383611665565b6107f783838360405180602001604052806000815250611131565b6108c0611960565b6108c9816119e1565b6000908152600b6020526040902060040180547fffffffffffffffffffffffffffffffffffffffffffffffffffffffffffffff00166001179055565b60008181526002602052604081205473ffffffffffffffffffffffffffffffffffffffff168061046e576040517f08c379a000000000000000000000000000000000000000000000000000000000815260206004820152601860248201527f4552433732313a20696e76616c696420746f6b656e2049440000000000000000604482015260640161072f565b600073ffffffffffffffffffffffffffffffffffffffff8216610a36576040517f08c379a000000000000000000000000000000000000000000000000000000000815260206004820152602960248201527f4552433732313a2061646472657373207a65726f206973206e6f74206120766160448201527f6c6964206f776e65720000000000000000000000000000000000000000000000606482015260840161072f565b5073ffffffffffffffffffffffffffffffffffffffff1660009081526003602052604090205490565b610a67611960565b610a716000611a21565b565b6060600180546105b490612a0a565b6108c9611960565b73ffffffffffffffffffffffffffffffffffffffff84166000908152600a6020526040812054600111610b3f576040517f08c379a000000000000000000000000000000000000000000000000000000000815260206004820152602360248201527f736572746966696b61742068616e79612064697465726269746b616e2031206b60448201527f616c690000000000000000000000000000000000000000000000000000000000606482015260840161072f565b82604051602001610b509190612c0c565b604080517fffffffffffffffffffffffffffffffffffffffffffffffffffffffffffffffe081840301815282825280516020918201206000888152600b8352929092209192610ba0929101612c28565b6040516020818303038152906040528051906020012014610c1d576040517f08c379a000000000000000000000000000000000000000000000000000000000815260206004820152601a60248201527f6e696d206d616861736973776120746964616b20736573756169000000000000604482015260640161072f565b81604051602001610c2e9190612c0c565b604080517fffffffffffffffffffffffffffffffffffffffffffffffffffffffffffffffe081840301815282825280516020918201206000888152600b8352929092209192610c81926001019101612c28565b6040516020818303038152906040528051906020012014610cfe576040517f08c379a000000000000000000000000000000000000000000000000000000000815260206004820152601860248201527f756e69766572736974617320746964616b207365737561690000000000000000604482015260640161072f565b6000848152600b602052604090206004015460ff1615610d7a576040517f08c379a000000000000000000000000000000000000000000000000000000000815260206004820152601860248201527f696a617a616820737564616820746964616b2076616c69640000000000000000604482015260640161072f565b600954610d9e9073ffffffffffffffffffffffffffffffffffffffff16868661089d565b73ffffffffffffffffffffffffffffffffffffffff85166000908152600a60205260408120805491610dcf83612cbc565b91905055508390505b949350505050565b610e316040518060c0016040528060608152602001606081526020016060815260200160008152602001600015158152602001600073ffffffffffffffffffffffffffffffffffffffff1681525090565b81604051602001610e429190612c0c565b604080517fffffffffffffffffffffffffffffffffffffffffffffffffffffffffffffffe081840301815282825280516020918201206000878152600b8352929092209192610e95926001019101612c28565b6040516020818303038152906040528051906020012014610f12576040517f08c379a000000000000000000000000000000000000000000000000000000000815260206004820152601860248201527f756e69766572736974617320746964616b207365737561690000000000000000604482015260640161072f565b6000838152600b602052604090819020815160c08101909252805482908290610f3a90612a0a565b80601f0160208091040260200160405190810160405280929190818152602001828054610f6690612a0a565b8015610fb35780601f10610f8857610100808354040283529160200191610fb3565b820191906000526020600020905b815481529060010190602001808311610f9657829003601f168201915b50505050508152602001600182018054610fcc90612a0a565b80601f0160208091040260200160405190810160405280929190818152602001828054610ff890612a0a565b80156110455780601f1061101a57610100808354040283529160200191611045565b820191906000526020600020905b81548152906001019060200180831161102857829003601f168201915b5050505050815260200160028201805461105e90612a0a565b80601f016020809104026020016040519081016040528092919081815260200182805461108a90612a0a565b80156110d75780601f106110ac576101008083540402835291602001916110d7565b820191906000526020600020905b8154815290600101906020018083116110ba57829003601f168201915b50505091835250506003820154602082015260049091015460ff811615156040830152610100900473ffffffffffffffffffffffffffffffffffffffff166060909101529392505050565b61112d338383611a98565b5050565b61113b33836115a6565b6111c7576040517f08c379a000000000000000000000000000000000000000000000000000000000815260206004820152602d60248201527f4552433732313a2063616c6c6572206973206e6f7420746f6b656e206f776e6560448201527f72206f7220617070726f76656400000000000000000000000000000000000000606482015260840161072f565b6111d384848484611bc5565b50505050565b60606111e48261147b565b600082815260066020526040812080546111fd90612a0a565b80601f016020809104026020016040519081016040528092919081815260200182805461122990612a0a565b80156112765780601f1061124b57610100808354040283529160200191611276565b820191906000526020600020905b81548152906001019060200180831161125957829003601f168201915b50505050509050600061129460408051602081019091526000815290565b905080516000036112a6575092915050565b8151156112d85780826040516020016112c0929190612cf4565b60405160208183030381529060405292505050919050565b610dd884611c68565b6112e9611960565b73ffffffffffffffffffffffffffffffffffffffff811661138c576040517f08c379a000000000000000000000000000000000000000000000000000000000815260206004820152602660248201527f4f776e61626c653a206e6577206f776e657220697320746865207a65726f206160448201527f6464726573730000000000000000000000000000000000000000000000000000606482015260840161072f565b61139581611a21565b50565b61112d828260405180602001604052806000815250611cdc565b60008281526002602052604090205473ffffffffffffffffffffffffffffffffffffffff16611463576040517f08c379a000000000000000000000000000000000000000000000000000000000815260206004820152602e60248201527f45524337323155524953746f726167653a2055524920736574206f66206e6f6e60448201527f6578697374656e7420746f6b656e000000000000000000000000000000000000606482015260840161072f565b60008281526006602052604090206107f78282612aab565b60008181526002602052604090205473ffffffffffffffffffffffffffffffffffffffff16611395576040517f08c379a000000000000000000000000000000000000000000000000000000000815260206004820152601860248201527f4552433732313a20696e76616c696420746f6b656e2049440000000000000000604482015260640161072f565b600081815260046020526040902080547fffffffffffffffffffffffff00000000000000000000000000000000000000001673ffffffffffffffffffffffffffffffffffffffff8416908117909155819061156082610905565b73ffffffffffffffffffffffffffffffffffffffff167f8c5be1e5ebec7d5bd14f71427d1e84f3dd0314c0f7b2291e5b200ac8c7c3b92560405160405180910390a45050565b6000806115b283610905565b90508073ffffffffffffffffffffffffffffffffffffffff168473ffffffffffffffffffffffffffffffffffffffff161480611620575073ffffffffffffffffffffffffffffffffffffffff80821660009081526005602090815260408083209388168352929052205460ff165b80610dd857508373ffffffffffffffffffffffffffffffffffffffff1661164684610637565b73ffffffffffffffffffffffffffffffffffffffff1614949350505050565b8273ffffffffffffffffffffffffffffffffffffffff1661168582610905565b73ffffffffffffffffffffffffffffffffffffffff1614611728576040517f08c379a000000000000000000000000000000000000000000000000000000000815260206004820152602560248201527f4552433732313a207472616e736665722066726f6d20696e636f72726563742060448201527f6f776e6572000000000000000000000000000000000000000000000000000000606482015260840161072f565b73ffffffffffffffffffffffffffffffffffffffff82166117ca576040517f08c379a0000000000000000000000000000000000000000000000000000000008152602060048201526024808201527f4552433732313a207472616e7366657220746f20746865207a65726f2061646460448201527f7265737300000000000000000000000000000000000000000000000000000000606482015260840161072f565b8273ffffffffffffffffffffffffffffffffffffffff166117ea82610905565b73ffffffffffffffffffffffffffffffffffffffff161461188d576040517f08c379a000000000000000000000000000000000000000000000000000000000815260206004820152602560248201527f4552433732313a207472616e736665722066726f6d20696e636f72726563742060448201527f6f776e6572000000000000000000000000000000000000000000000000000000606482015260840161072f565b600081815260046020908152604080832080547fffffffffffffffffffffffff000000000000000000000000000000000000000090811690915573ffffffffffffffffffffffffffffffffffffffff8781168086526003855283862080547fffffffffffffffffffffffffffffffffffffffffffffffffffffffffffffffff01905590871680865283862080546001019055868652600290945282852080549092168417909155905184937fddf252ad1be2c89b69c2b068fc378daa952ba7f163c4a11628f55a4df523b3ef91a4505050565b60075473ffffffffffffffffffffffffffffffffffffffff163314610a71576040517f08c379a000000000000000000000000000000000000000000000000000000000815260206004820181905260248201527f4f776e61626c653a2063616c6c6572206973206e6f7420746865206f776e6572604482015260640161072f565b6119ea81611d7f565b60008181526006602052604090208054611a0390612a0a565b15905061139557600081815260066020526040812061139591612407565b6007805473ffffffffffffffffffffffffffffffffffffffff8381167fffffffffffffffffffffffff0000000000000000000000000000000000000000831681179093556040519116919082907f8be0079c531659141344cd1fd0a4f28419497f9722a3daafe3b4186f6b6457e090600090a35050565b8173ffffffffffffffffffffffffffffffffffffffff168373ffffffffffffffffffffffffffffffffffffffff1603611b2d576040517f08c379a000000000000000000000000000000000000000000000000000000000815260206004820152601960248201527f4552433732313a20617070726f766520746f2063616c6c657200000000000000604482015260640161072f565b73ffffffffffffffffffffffffffffffffffffffff83811660008181526005602090815260408083209487168084529482529182902080547fffffffffffffffffffffffffffffffffffffffffffffffffffffffffffffff001686151590811790915591519182527f17307eab39ab6107e8899845ad3d59bd9653f200f220920489ca2b5937696c31910160405180910390a3505050565b611bd0848484611665565b611bdc84848484611e57565b6111d3576040517f08c379a000000000000000000000000000000000000000000000000000000000815260206004820152603260248201527f4552433732313a207472616e7366657220746f206e6f6e20455243373231526560448201527f63656976657220696d706c656d656e7465720000000000000000000000000000606482015260840161072f565b6060611c738261147b565b6000611c8a60408051602081019091526000815290565b90506000815111611caa5760405180602001604052806000815250611cd5565b80611cb484612047565b604051602001611cc5929190612cf4565b6040516020818303038152906040525b9392505050565b611ce683836121e2565b611cf36000848484611e57565b6107f7576040517f08c379a000000000000000000000000000000000000000000000000000000000815260206004820152603260248201527f4552433732313a207472616e7366657220746f206e6f6e20455243373231526560448201527f63656976657220696d706c656d656e7465720000000000000000000000000000606482015260840161072f565b6000611d8a82610905565b9050611d9582610905565b600083815260046020908152604080832080547fffffffffffffffffffffffff000000000000000000000000000000000000000090811690915573ffffffffffffffffffffffffffffffffffffffff85168085526003845282852080547fffffffffffffffffffffffffffffffffffffffffffffffffffffffffffffffff0190558785526002909352818420805490911690555192935084927fddf252ad1be2c89b69c2b068fc378daa952ba7f163c4a11628f55a4df523b3ef908390a45050565b600073ffffffffffffffffffffffffffffffffffffffff84163b1561203f576040517f150b7a0200000000000000000000000000000000000000000000000000000000815273ffffffffffffffffffffffffffffffffffffffff85169063150b7a0290611ece903390899088908890600401612d23565b6020604051808303816000875af1925050508015611f27575060408051601f3d9081017fffffffffffffffffffffffffffffffffffffffffffffffffffffffffffffffe0168201909252611f2491810190612d62565b60015b611ff4573d808015611f55576040519150601f19603f3d011682016040523d82523d6000602084013e611f5a565b606091505b508051600003611fec576040517f08c379a000000000000000000000000000000000000000000000000000000000815260206004820152603260248201527f4552433732313a207472616e7366657220746f206e6f6e20455243373231526560448201527f63656976657220696d706c656d656e7465720000000000000000000000000000606482015260840161072f565b805181602001fd5b7fffffffff00000000000000000000000000000000000000000000000000000000167f150b7a0200000000000000000000000000000000000000000000000000000000149050610dd8565b506001610dd8565b60606001827a184f03e93ff9f4daa797ed6e38ed64bf6a1f010000000000000000811061209457604091909101907a184f03e93ff9f4daa797ed6e38ed64bf6a1f01000000000000000090045b6d04ee2d6d415b85acef810000000081106120c257602091909101906d04ee2d6d415b85acef810000000090045b662386f26fc1000081106120e25760109190910190662386f26fc1000090045b6305f5e10081106120fc57600891909101906305f5e10090045b6127108110612112576004919091019061271090045b606481106121265760029190910190606490045b600a8110612135576001820191505b60008267ffffffffffffffff811115612150576121506124a0565b6040519080825280601f01601f19166020018201604052801561217a576020820181803683370190505b5090508281016020015b7fffffffffffffffffffffffffffffffffffffffffffffffffffffffffffffffff017f3031323334353637383961626364656600000000000000000000000000000000600a87061a8153600a86049550856121845750949350505050565b73ffffffffffffffffffffffffffffffffffffffff821661225f576040517f08c379a000000000000000000000000000000000000000000000000000000000815260206004820181905260248201527f4552433732313a206d696e7420746f20746865207a65726f2061646472657373604482015260640161072f565b60008181526002602052604090205473ffffffffffffffffffffffffffffffffffffffff16156122eb576040517f08c379a000000000000000000000000000000000000000000000000000000000815260206004820152601c60248201527f4552433732313a20746f6b656e20616c7265616479206d696e74656400000000604482015260640161072f565b60008181526002602052604090205473ffffffffffffffffffffffffffffffffffffffff1615612377576040517f08c379a000000000000000000000000000000000000000000000000000000000815260206004820152601c60248201527f4552433732313a20746f6b656e20616c7265616479206d696e74656400000000604482015260640161072f565b73ffffffffffffffffffffffffffffffffffffffff8216600081815260036020908152604080832080546001019055848352600290915280822080547fffffffffffffffffffffffff0000000000000000000000000000000000000000168417905551839291907fddf252ad1be2c89b69c2b068fc378daa952ba7f163c4a11628f55a4df523b3ef908290a45050565b50805461241390612a0a565b6000825580601f10612423575050565b601f01602090049060005260206000209081019061139591905b80821115612451576000815560010161243d565b5090565b7fffffffff000000000000000000000000000000000000000000000000000000008116811461139557600080fd5b60006020828403121561249557600080fd5b8135611cd581612455565b7f4e487b7100000000000000000000000000000000000000000000000000000000600052604160045260246000fd5b600067ffffffffffffffff808411156124ea576124ea6124a0565b604051601f85017fffffffffffffffffffffffffffffffffffffffffffffffffffffffffffffffe0908116603f01168101908282118183101715612530576125306124a0565b8160405280935085815286868601111561254957600080fd5b858560208301376000602087830101525050509392505050565b600082601f83011261257457600080fd5b611cd5838335602085016124cf565b60008060008060006080868803121561259b57600080fd5b853567ffffffffffffffff808211156125b357600080fd5b818801915088601f8301126125c757600080fd5b8135818111156125d657600080fd5b8960208285010111156125e857600080fd5b60209283019750955090870135908082111561260357600080fd5b61260f89838a01612563565b9450604088013591508082111561262557600080fd5b61263189838a01612563565b9350606088013591508082111561264757600080fd5b5061265488828901612563565b9150509295509295909350565b60005b8381101561267c578181015183820152602001612664565b838111156111d35750506000910152565b600081518084526126a5816020860160208601612661565b601f017fffffffffffffffffffffffffffffffffffffffffffffffffffffffffffffffe0169290920160200192915050565b602081526000611cd5602083018461268d565b6000602082840312156126fc57600080fd5b5035919050565b803573ffffffffffffffffffffffffffffffffffffffff8116811461272757600080fd5b919050565b6000806040838503121561273f57600080fd5b61274883612703565b946020939093013593505050565b60008060006060848603121561276b57600080fd5b61277484612703565b925061278260208501612703565b9150604084013590509250925092565b6000602082840312156127a457600080fd5b611cd582612703565b600080600080608085870312156127c357600080fd5b6127cc85612703565b935060208501359250604085013567ffffffffffffffff808211156127f057600080fd5b6127fc88838901612563565b9350606087013591508082111561281257600080fd5b5061281f87828801612563565b91505092959194509250565b6000806040838503121561283e57600080fd5b82359150602083013567ffffffffffffffff81111561285c57600080fd5b61286885828601612563565b9150509250929050565b602081526000825160c0602084015261288e60e084018261268d565b905060208401517fffffffffffffffffffffffffffffffffffffffffffffffffffffffffffffffe0808584030160408601526128ca838361268d565b92506040860151915080858403016060860152506128e8828261268d565b915050606084015160808401526080840151151560a084015273ffffffffffffffffffffffffffffffffffffffff60a08501511660c08401528091505092915050565b6000806040838503121561293e57600080fd5b61294783612703565b91506020830135801515811461295c57600080fd5b809150509250929050565b6000806000806080858703121561297d57600080fd5b61298685612703565b935061299460208601612703565b925060408501359150606085013567ffffffffffffffff8111156129b757600080fd5b8501601f810187136129c857600080fd5b61281f878235602084016124cf565b600080604083850312156129ea57600080fd5b6129f383612703565b9150612a0160208401612703565b90509250929050565b600181811c90821680612a1e57607f821691505b602082108103612a57577f4e487b7100000000000000000000000000000000000000000000000000000000600052602260045260246000fd5b50919050565b601f8211156107f757600081815260208120601f850160051c81016020861015612a845750805b601f850160051c820191505b81811015612aa357828155600101612a90565b505050505050565b815167ffffffffffffffff811115612ac557612ac56124a0565b612ad981612ad38454612a0a565b84612a5d565b602080601f831160018114612b2c5760008415612af65750858301515b7fffffffffffffffffffffffffffffffffffffffffffffffffffffffffffffffff600386901b1c1916600185901b178555612aa3565b6000858152602081207fffffffffffffffffffffffffffffffffffffffffffffffffffffffffffffffe08616915b82811015612b7957888601518255948401946001909101908401612b5a565b5085821015612bb557878501517fffffffffffffffffffffffffffffffffffffffffffffffffffffffffffffffff600388901b60f8161c191681555b5050505050600190811b01905550565b7f4e487b7100000000000000000000000000000000000000000000000000000000600052601160045260246000fd5b60008219821115612c0757612c07612bc5565b500190565b60008251612c1e818460208701612661565b9190910192915050565b6000808354612c3681612a0a565b60018281168015612c4e5760018114612c8157612cb0565b7fffffffffffffffffffffffffffffffffffffffffffffffffffffffffffffff0084168752821515830287019450612cb0565b8760005260208060002060005b85811015612ca75781548a820152908401908201612c8e565b50505082870194505b50929695505050505050565b60007fffffffffffffffffffffffffffffffffffffffffffffffffffffffffffffffff8203612ced57612ced612bc5565b5060010190565b60008351612d06818460208801612661565b835190830190612d1a818360208801612661565b01949350505050565b600073ffffffffffffffffffffffffffffffffffffffff80871683528086166020840152508360408301526080606083015261059b608083018461268d565b600060208284031215612d7457600080fd5b8151611cd58161245556fea2646970667358221220afce48d74bd688fb854a8a258f099135941779d8808be0eb1b436df242865ed264736f6c634300080f0033",
    "linkReferences": {}
  },
  "methodIdentifiers": {
    "approve(address,uint256)": "095ea7b3",
    "balanceOf(address)": "70a08231",
    "burn(uint256)": "42966c68",
    "burnAfterTransfer(uint256)": "963d2516",
    "getApproved(uint256)": "081812fc",
    "getNim(uint256,string)": "9d79b756",
    "isApprovedForAll(address,address)": "e985e9c5",
    "mint(string,string,string,string)": "02341c71",
    "name()": "06fdde03",
    "owner()": "8da5cb5b",
    "ownerOf(uint256)": "6352211e",
    "renounceOwnership()": "715018a6",
    "safeTransferFrom(address,address,uint256)": "42842e0e",
    "safeTransferFrom(address,address,uint256,bytes)": "b88d4fde",
    "setApprovalForAll(address,bool)": "a22cb465",
    "supportsInterface(bytes4)": "01ffc9a7",
    "symbol()": "95d89b41",
    "tokenURI(uint256)": "c87b56dd",
    "transferFrom(address,address,uint256)": "23b872dd",
    "transferNim(address,uint256,string,string)": "9b41d33f",
    "transferOwnership(address)": "f2fde38b"
  },
  "id": 20
}