{
  "abi": [
    {
      "inputs": [
        {
          "internalType": "address",
          "name": "sertifikatContract",
          "type": "address"
        }
      ],
      "stateMutability": "nonpayable",
      "type": "constructor"
    },
    {
      "anonymous": false,
      "inputs": [
        {
          "indexed": true,
          "internalType": "address",
          "name": "previousOwner",
          "type": "address"
        },
        {
          "indexed": true,
          "internalType": "address",
          "name": "newOwner",
          "type": "address"
        }
      ],
      "name": "OwnershipTransferred",
      "type": "event"
    },
    {
      "inputs": [
        {
          "internalType": "uint256",
          "name": "tokenId_",
          "type": "uint256"
        },
        {
          "internalType": "string",
          "name": "nim_",
          "type": "string"
        },
        {
          "internalType": "string",
          "name": "nina_",
          "type": "string"
        },
        {
          "internalType": "string",
          "name": "universitas_",
          "type": "string"
        },
        {
          "internalType": "string",
          "name": "kodeProdi_",
          "type": "string"
        }
      ],
      "name": "cetakIjazah",
      "outputs": [
        {
          "internalType": "bool",
          "name": "isMhs",
          "type": "bool"
        }
      ],
      "stateMutability": "nonpayable",
      "type": "function"
    },
    {
      "inputs": [
        {
          "internalType": "string",
          "name": "universitas_",
          "type": "string"
        }
      ],
      "name": "getAllMahasiswa",
      "outputs": [
        {
          "components": [
            {
              "internalType": "string",
              "name": "nimMahasiswa",
              "type": "string"
            },
            {
              "internalType": "string",
              "name": "ninaMahasiswa",
              "type": "string"
            },
            {
              "internalType": "string",
              "name": "kodeProdi",
              "type": "string"
            },
            {
              "internalType": "uint256",
              "name": "tokenId",
              "type": "uint256"
            },
            {
              "internalType": "uint256",
              "name": "listPointer",
              "type": "uint256"
            }
          ],
          "internalType": "struct PairingNim.EntityPairing[]",
          "name": "mahasiswa",
          "type": "tuple[]"
        }
      ],
      "stateMutability": "view",
      "type": "function"
    },
    {
      "inputs": [
        {
          "internalType": "string",
          "name": "universitas_",
          "type": "string"
        },
        {
          "internalType": "string",
          "name": "nim_",
          "type": "string"
        },
        {
          "internalType": "string",
          "name": "kodeProdi_",
          "type": "string"
        }
      ],
      "name": "getMahasiswa",
      "outputs": [
        {
          "components": [
            {
              "internalType": "string",
              "name": "nimMahasiswa",
              "type": "string"
            },
            {
              "internalType": "string",
              "name": "ninaMahasiswa",
              "type": "string"
            },
            {
              "internalType": "string",
              "name": "kodeProdi",
              "type": "string"
            },
            {
              "internalType": "uint256",
              "name": "tokenId",
              "type": "uint256"
            },
            {
              "internalType": "uint256",
              "name": "listPointer",
              "type": "uint256"
            }
          ],
          "internalType": "struct PairingNim.EntityPairing",
          "name": "mahasiswa",
          "type": "tuple"
        }
      ],
      "stateMutability": "view",
      "type": "function"
    },
    {
      "inputs": [
        {
          "internalType": "string",
          "name": "universitas_",
          "type": "string"
        },
        {
          "internalType": "string",
          "name": "nim_",
          "type": "string"
        },
        {
          "internalType": "string",
          "name": "kodeProdi_",
          "type": "string"
        }
      ],
      "name": "getTokenIdMhs",
      "outputs": [
        {
          "internalType": "uint256",
          "name": "tokenId",
          "type": "uint256"
        }
      ],
      "stateMutability": "view",
      "type": "function"
    },
    {
      "inputs": [
        {
          "internalType": "string",
          "name": "universitas_",
          "type": "string"
        },
        {
          "internalType": "string",
          "name": "kodeProdi_",
          "type": "string"
        },
        {
          "internalType": "string",
          "name": "nim_",
          "type": "string"
        }
      ],
      "name": "isMahasiswaLulus",
      "outputs": [
        {
          "internalType": "bool",
          "name": "isMhs",
          "type": "bool"
        }
      ],
      "stateMutability": "view",
      "type": "function"
    },
    {
      "inputs": [],
      "name": "owner",
      "outputs": [
        {
          "internalType": "address",
          "name": "",
          "type": "address"
        }
      ],
      "stateMutability": "view",
      "type": "function"
    },
    {
      "inputs": [],
      "name": "renounceOwnership",
      "outputs": [],
      "stateMutability": "nonpayable",
      "type": "function"
    },
    {
      "inputs": [
        {
          "internalType": "string[][]",
          "name": "mahasiswa_",
          "type": "string[][]"
        },
        {
          "internalType": "string",
          "name": "universitas_",
          "type": "string"
        },
        {
          "internalType": "string",
          "name": "kodeProdi_",
          "type": "string"
        }
      ],
      "name": "tambahMahasiswa",
      "outputs": [
        {
          "internalType": "bool",
          "name": "success",
          "type": "bool"
        }
      ],
      "stateMutability": "nonpayable",
      "type": "function"
    },
    {
      "inputs": [
        {
          "internalType": "address",
          "name": "newOwner",
          "type": "address"
        }
      ],
      "name": "transferOwnership",
      "outputs": [],
      "stateMutability": "nonpayable",
      "type": "function"
    }
  ],
  "bytecode": {
    "object": "0x6080604052600054600d80546001600160a01b0319166001600160a01b039092169190911790553480156200003357600080fd5b5060405162001f4c38038062001f4c8339810160408190526200005691620000d7565b620000613362000087565b600b80546001600160a01b0319166001600160a01b039290921691909117905562000109565b600080546001600160a01b038381166001600160a01b0319831681178455604051919092169283917f8be0079c531659141344cd1fd0a4f28419497f9722a3daafe3b4186f6b6457e09190a35050565b600060208284031215620000ea57600080fd5b81516001600160a01b03811681146200010257600080fd5b9392505050565b611e3380620001196000396000f3fe608060405234801561001057600080fd5b50600436106100a35760003560e01c80638da5cb5b11610076578063d3b40e0a1161005b578063d3b40e0a14610163578063d4cc2a9b14610176578063f2fde38b1461018957600080fd5b80638da5cb5b1461011b578063993461801461014357600080fd5b806362d9b51c146100a8578063690f84b5146100d0578063715018a6146100f05780637adffafc146100fa575b600080fd5b6100bb6100b6366004611444565b61019c565b60405190151581526020015b60405180910390f35b6100e36100de3660046114cc565b610203565b6040516100c791906115ec565b6100f86104d8565b005b61010d610108366004611444565b6104ec565b6040519081526020016100c7565b60005460405173ffffffffffffffffffffffffffffffffffffffff90911681526020016100c7565b610156610151366004611444565b61060d565b6040516100c7919061166c565b6100bb6101713660046116aa565b610936565b6100bb610184366004611821565b6109d2565b6100f86101973660046118d8565b610d9b565b6000806003856040516101af919061190e565b9081526020016040518091039020846040516101cb919061190e565b9081526020016040518091039020836040516101e7919061190e565b9081526020016040518091039020600301541190509392505050565b60606000600283604051610217919061190e565b9081526040519081900360200190205411610293576040517f08c379a000000000000000000000000000000000000000000000000000000000815260206004820152601360248201527f6d6168617369737761206e6f7420666f756e640000000000000000000000000060448201526064015b60405180910390fd5b6002826040516102a3919061190e565b9081526020016040518091039020805480602002602001604051908101604052809291908181526020016000905b828210156104cd57838290600052602060002090600502016040518060a00160405290816000820180546103049061192a565b80601f01602080910402602001604051908101604052809291908181526020018280546103309061192a565b801561037d5780601f106103525761010080835404028352916020019161037d565b820191906000526020600020905b81548152906001019060200180831161036057829003601f168201915b505050505081526020016001820180546103969061192a565b80601f01602080910402602001604051908101604052809291908181526020018280546103c29061192a565b801561040f5780601f106103e45761010080835404028352916020019161040f565b820191906000526020600020905b8154815290600101906020018083116103f257829003601f168201915b505050505081526020016002820180546104289061192a565b80601f01602080910402602001604051908101604052809291908181526020018280546104549061192a565b80156104a15780601f10610476576101008083540402835291602001916104a1565b820191906000526020600020905b81548152906001019060200180831161048457829003601f168201915b5050505050815260200160038201548152602001600482015481525050815260200190600101906102d1565b505050509050919050565b6104e0610e52565b6104ea6000610ed3565b565b6000806004856040516104ff919061190e565b90815260200160405180910390208360405161051b919061190e565b908152602001604051809103902084604051610537919061190e565b908152602001604051809103902054116105ad576040517f08c379a000000000000000000000000000000000000000000000000000000000815260206004820152600f60248201527f746f6b656e206e6f7420666f756e640000000000000000000000000000000000604482015260640161028a565b6004846040516105bd919061190e565b9081526020016040518091039020826040516105d9919061190e565b9081526020016040518091039020836040516105f5919061190e565b90815260200160405180910390205490509392505050565b61063f6040518060a0016040528060608152602001606081526020016060815260200160008152602001600081525090565b6000600385604051610651919061190e565b90815260200160405180910390208360405161066d919061190e565b908152602001604051809103902084604051610689919061190e565b90815260200160405180910390206003015411610702576040517f08c379a000000000000000000000000000000000000000000000000000000000815260206004820152601360248201527f6d6168617369737761206e6f7420666f756e6400000000000000000000000000604482015260640161028a565b600384604051610712919061190e565b90815260200160405180910390208260405161072e919061190e565b90815260200160405180910390208360405161074a919061190e565b90815260200160405180910390206040518060a00160405290816000820180546107739061192a565b80601f016020809104026020016040519081016040528092919081815260200182805461079f9061192a565b80156107ec5780601f106107c1576101008083540402835291602001916107ec565b820191906000526020600020905b8154815290600101906020018083116107cf57829003601f168201915b505050505081526020016001820180546108059061192a565b80601f01602080910402602001604051908101604052809291908181526020018280546108319061192a565b801561087e5780601f106108535761010080835404028352916020019161087e565b820191906000526020600020905b81548152906001019060200180831161086157829003601f168201915b505050505081526020016002820180546108979061192a565b80601f01602080910402602001604051908101604052809291908181526020018280546108c39061192a565b80156109105780601f106108e557610100808354040283529160200191610910565b820191906000526020600020905b8154815290600101906020018083116108f357829003601f168201915b505050505081526020016003820154815260200160048201548152505090509392505050565b6000805b84518110156109c7576109b5848683815181106109595761095961197d565b60200260200101516000815181106109735761097361197d565b602002602001015187848151811061098d5761098d61197d565b60200260200101516001815181106109a7576109a761197d565b602002602001015186610f48565b806109bf816119db565b91505061093a565b506001949350505050565b6000846040516020016109e5919061190e565b60405160208183030381529060405280519060200120600384604051610a0b919061190e565b908152602001604051809103902083604051610a27919061190e565b908152602001604051809103902086604051610a43919061190e565b90815260405160209181900382018120610a5f92909101611a13565b6040516020818303038152906040528051906020012014610adc576040517f08c379a000000000000000000000000000000000000000000000000000000000815260206004820152601a60248201527f6e696d206d616861736973776120746964616b20736573756169000000000000604482015260640161028a565b83604051602001610aed919061190e565b60405160208183030381529060405280519060200120600384604051610b13919061190e565b908152602001604051809103902083604051610b2f919061190e565b908152602001604051809103902086604051610b4b919061190e565b9081526020016040518091039020600101604051602001610b6c9190611a13565b6040516020818303038152906040528051906020012014610be9576040517f08c379a000000000000000000000000000000000000000000000000000000000815260206004820152601b60248201527f6e696e61206d616861736973776120746964616b207365737561690000000000604482015260640161028a565b81604051602001610bfa919061190e565b60405160208183030381529060405280519060200120600384604051610c20919061190e565b908152602001604051809103902083604051610c3c919061190e565b908152602001604051809103902086604051610c58919061190e565b9081526020016040518091039020600201604051602001610c799190611a13565b6040516020818303038152906040528051906020012014610cf6576040517f08c379a000000000000000000000000000000000000000000000000000000000815260206004820152601660248201527f6b6f646550726f646920746964616b2073657375616900000000000000000000604482015260640161028a565b600b546040517f119a38990000000000000000000000000000000000000000000000000000000081523360048201526024810188905273ffffffffffffffffffffffffffffffffffffffff9091169063119a3899906044016020604051808303816000875af1158015610d6d573d6000803e3d6000fd5b505050506040513d601f19601f82011682018060405250810190610d919190611aa7565b9695505050505050565b610da3610e52565b73ffffffffffffffffffffffffffffffffffffffff8116610e46576040517f08c379a000000000000000000000000000000000000000000000000000000000815260206004820152602660248201527f4f776e61626c653a206e6577206f776e657220697320746865207a65726f206160448201527f6464726573730000000000000000000000000000000000000000000000000000606482015260840161028a565b610e4f81610ed3565b50565b60005473ffffffffffffffffffffffffffffffffffffffff1633146104ea576040517f08c379a000000000000000000000000000000000000000000000000000000000815260206004820181905260248201527f4f776e61626c653a2063616c6c6572206973206e6f7420746865206f776e6572604482015260640161028a565b6000805473ffffffffffffffffffffffffffffffffffffffff8381167fffffffffffffffffffffffff0000000000000000000000000000000000000000831681178455604051919092169283917f8be0079c531659141344cd1fd0a4f28419497f9722a3daafe3b4186f6b6457e09190a35050565b600184604051610f58919061190e565b908152602001604051809103902081604051610f74919061190e565b908152602001604051809103902083604051610f90919061190e565b9081526040519081900360200190205460ff161561102f576040517f08c379a0000000000000000000000000000000000000000000000000000000008152602060048201526024808201527f4e696d20706164612070726f646920696e6920737564616820646974616d626160448201527f686b616e00000000000000000000000000000000000000000000000000000000606482015260840161028a565b600b546040517f86833e9100000000000000000000000000000000000000000000000000000000815260009173ffffffffffffffffffffffffffffffffffffffff16906386833e919061108c90879087908a908890600401611ac9565b6020604051808303816000875af11580156110ab573d6000803e3d6000fd5b505050506040513d601f19601f820116820180604052508101906110cf9190611b2f565b905060056110dd8582611b97565b5060066110ea8482611b97565b5060076110f78382611b97565b50600881905560405160029061110e90879061190e565b90815260405160209181900382019020805460018101825560009182529190206005918202018061113f8382611cb1565b5060018181019061115290840182611cb1565b5060028181019061116590840182611cb1565b5060038201548160030155600482015481600401555050600160028660405161118e919061190e565b908152604051908190036020019020546111a89190611de6565b6009556040516005906003906111bf90889061190e565b9081526020016040518091039020836040516111db919061190e565b9081526020016040518091039020856040516111f7919061190e565b908152604051908190036020019020806112118382611cb1565b5060018181019061122490840182611cb1565b5060028181019061123790840182611cb1565b50600382015481600301556004820154816004015590505080600486604051611260919061190e565b90815260200160405180910390208360405161127c919061190e565b908152602001604051809103902085604051611298919061190e565b908152602001604051809103902081905550600180866040516112bb919061190e565b9081526020016040518091039020836040516112d7919061190e565b9081526020016040518091039020856040516112f3919061190e565b90815260405190819003602001902080549115157fffffffffffffffffffffffffffffffffffffffffffffffffffffffffffffff009092169190911790555050505050565b7f4e487b7100000000000000000000000000000000000000000000000000000000600052604160045260246000fd5b604051601f82017fffffffffffffffffffffffffffffffffffffffffffffffffffffffffffffffe016810167ffffffffffffffff811182821017156113ae576113ae611338565b604052919050565b600082601f8301126113c757600080fd5b813567ffffffffffffffff8111156113e1576113e1611338565b61141260207fffffffffffffffffffffffffffffffffffffffffffffffffffffffffffffffe0601f84011601611367565b81815284602083860101111561142757600080fd5b816020850160208301376000918101602001919091529392505050565b60008060006060848603121561145957600080fd5b833567ffffffffffffffff8082111561147157600080fd5b61147d878388016113b6565b9450602086013591508082111561149357600080fd5b61149f878388016113b6565b935060408601359150808211156114b557600080fd5b506114c2868287016113b6565b9150509250925092565b6000602082840312156114de57600080fd5b813567ffffffffffffffff8111156114f557600080fd5b611501848285016113b6565b949350505050565b60005b8381101561152457818101518382015260200161150c565b83811115611533576000848401525b50505050565b60008151808452611551816020860160208601611509565b601f017fffffffffffffffffffffffffffffffffffffffffffffffffffffffffffffffe0169290920160200192915050565b6000815160a0845261159860a0850182611539565b9050602083015184820360208601526115b18282611539565b915050604083015184820360408601526115cb8282611539565b91505060608301516060850152608083015160808501528091505092915050565b6000602080830181845280855180835260408601915060408160051b870101925083870160005b8281101561165f577fffffffffffffffffffffffffffffffffffffffffffffffffffffffffffffffc088860301845261164d858351611583565b94509285019290850190600101611613565b5092979650505050505050565b60208152600061167f6020830184611583565b9392505050565b600067ffffffffffffffff8211156116a0576116a0611338565b5060051b60200190565b6000806000606084860312156116bf57600080fd5b67ffffffffffffffff80853511156116d657600080fd5b8435850186601f8201126116e957600080fd5b6116fb6116f68235611686565b611367565b81358082526020808301929160051b84010189101561171957600080fd5b602083015b6020843560051b8501018110156117ce57848135111561173d57600080fd5b803584018a603f82011261175057600080fd5b6117606116f66020830135611686565b602082810135808352908201919060051b83016040018d81111561178357600080fd5b604084015b818110156117bc57898135111561179e57600080fd5b6117ae8f604083358801016113b6565b845260209384019301611788565b5050855250506020928301920161171e565b509550505060208501358110156117e457600080fd5b6117f486602087013587016113b6565b9250806040860135111561180757600080fd5b5061181885604086013586016113b6565b90509250925092565b600080600080600060a0868803121561183957600080fd5b85359450602086013567ffffffffffffffff8082111561185857600080fd5b61186489838a016113b6565b9550604088013591508082111561187a57600080fd5b61188689838a016113b6565b9450606088013591508082111561189c57600080fd5b6118a889838a016113b6565b935060808801359150808211156118be57600080fd5b506118cb888289016113b6565b9150509295509295909350565b6000602082840312156118ea57600080fd5b813573ffffffffffffffffffffffffffffffffffffffff8116811461167f57600080fd5b60008251611920818460208701611509565b9190910192915050565b600181811c9082168061193e57607f821691505b602082108103611977577f4e487b7100000000000000000000000000000000000000000000000000000000600052602260045260246000fd5b50919050565b7f4e487b7100000000000000000000000000000000000000000000000000000000600052603260045260246000fd5b7f4e487b7100000000000000000000000000000000000000000000000000000000600052601160045260246000fd5b60007fffffffffffffffffffffffffffffffffffffffffffffffffffffffffffffffff8203611a0c57611a0c6119ac565b5060010190565b6000808354611a218161192a565b60018281168015611a395760018114611a6c57611a9b565b7fffffffffffffffffffffffffffffffffffffffffffffffffffffffffffffff0084168752821515830287019450611a9b565b8760005260208060002060005b85811015611a925781548a820152908401908201611a79565b50505082870194505b50929695505050505050565b600060208284031215611ab957600080fd5b8151801515811461167f57600080fd5b60a08152600060a082015260c060208201526000611aea60c0830187611539565b8281036040840152611afc8187611539565b90508281036060840152611b108186611539565b90508281036080840152611b248185611539565b979650505050505050565b600060208284031215611b4157600080fd5b5051919050565b601f821115611b9257600081815260208120601f850160051c81016020861015611b6f5750805b601f850160051c820191505b81811015611b8e57828155600101611b7b565b5050505b505050565b815167ffffffffffffffff811115611bb157611bb1611338565b611bc581611bbf845461192a565b84611b48565b602080601f831160018114611c185760008415611be25750858301515b7fffffffffffffffffffffffffffffffffffffffffffffffffffffffffffffffff600386901b1c1916600185901b178555611b8e565b6000858152602081207fffffffffffffffffffffffffffffffffffffffffffffffffffffffffffffffe08616915b82811015611c6557888601518255948401946001909101908401611c46565b5085821015611ca157878501517fffffffffffffffffffffffffffffffffffffffffffffffffffffffffffffffff600388901b60f8161c191681555b5050505050600190811b01905550565b818103611cbc575050565b611cc6825461192a565b67ffffffffffffffff811115611cde57611cde611338565b611cec81611bbf845461192a565b6000601f821160018114611d3e5760008315611d085750848201545b7fffffffffffffffffffffffffffffffffffffffffffffffffffffffffffffffff600385901b1c1916600184901b178455611ddf565b6000858152602090207fffffffffffffffffffffffffffffffffffffffffffffffffffffffffffffffe0841690600086815260209020845b83811015611d965782860154825560019586019590910190602001611d76565b5085831015611dd257818501547fffffffffffffffffffffffffffffffffffffffffffffffffffffffffffffffff600388901b60f8161c191681555b50505060018360011b0184555b5050505050565b600082821015611df857611df86119ac565b50039056fea2646970667358221220d18d07d97d3d76d332c1dd0949cc001a9af95b32954f95e14a82dc29e75b4bfb64736f6c634300080f0033",
    "linkReferences": {}
  },
  "methodIdentifiers": {
    "cetakIjazah(uint256,string,string,string,string)": "d4cc2a9b",
    "getAllMahasiswa(string)": "690f84b5",
    "getMahasiswa(string,string,string)": "99346180",
    "getTokenIdMhs(string,string,string)": "7adffafc",
    "isMahasiswaLulus(string,string,string)": "62d9b51c",
    "owner()": "8da5cb5b",
    "renounceOwnership()": "715018a6",
    "tambahMahasiswa(string[][],string,string)": "d3b40e0a",
    "transferOwnership(address)": "f2fde38b"
  },
  "id": 21
}