{
  "abi": [
    {
      "inputs": [],
      "stateMutability": "payable",
      "type": "constructor"
    },
    {
      "anonymous": false,
      "inputs": [
        {
          "indexed": true,
          "internalType": "address",
          "name": "owner",
          "type": "address"
        },
        {
          "indexed": true,
          "internalType": "address",
          "name": "approved",
          "type": "address"
        },
        {
          "indexed": true,
          "internalType": "uint256",
          "name": "tokenId",
          "type": "uint256"
        }
      ],
      "name": "Approval",
      "type": "event"
    },
    {
      "anonymous": false,
      "inputs": [
        {
          "indexed": true,
          "internalType": "address",
          "name": "owner",
          "type": "address"
        },
        {
          "indexed": true,
          "internalType": "address",
          "name": "operator",
          "type": "address"
        },
        {
          "indexed": false,
          "internalType": "bool",
          "name": "approved",
          "type": "bool"
        }
      ],
      "name": "ApprovalForAll",
      "type": "event"
    },
    {
      "anonymous": false,
      "inputs": [
        {
          "indexed": true,
          "internalType": "address",
          "name": "previousOwner",
          "type": "address"
        },
        {
          "indexed": true,
          "internalType": "address",
          "name": "newOwner",
          "type": "address"
        }
      ],
      "name": "OwnershipTransferred",
      "type": "event"
    },
    {
      "anonymous": false,
      "inputs": [
        {
          "indexed": true,
          "internalType": "address",
          "name": "from",
          "type": "address"
        },
        {
          "indexed": true,
          "internalType": "address",
          "name": "to",
          "type": "address"
        },
        {
          "indexed": true,
          "internalType": "uint256",
          "name": "tokenId",
          "type": "uint256"
        }
      ],
      "name": "Transfer",
      "type": "event"
    },
    {
      "inputs": [
        {
          "internalType": "address",
          "name": "to",
          "type": "address"
        },
        {
          "internalType": "uint256",
          "name": "tokenId",
          "type": "uint256"
        }
      ],
      "name": "approve",
      "outputs": [],
      "stateMutability": "nonpayable",
      "type": "function"
    },
    {
      "inputs": [
        {
          "internalType": "address",
          "name": "owner",
          "type": "address"
        }
      ],
      "name": "balanceOf",
      "outputs": [
        {
          "internalType": "uint256",
          "name": "",
          "type": "uint256"
        }
      ],
      "stateMutability": "view",
      "type": "function"
    },
    {
      "inputs": [
        {
          "internalType": "string",
          "name": "universitas_",
          "type": "string"
        }
      ],
      "name": "getAllSertifikat",
      "outputs": [
        {
          "components": [
            {
              "internalType": "string",
              "name": "nimMahasiswa",
              "type": "string"
            },
            {
              "internalType": "string",
              "name": "ninaMahasiswa",
              "type": "string"
            },
            {
              "internalType": "string",
              "name": "universitas",
              "type": "string"
            },
            {
              "internalType": "string",
              "name": "kodeProdi",
              "type": "string"
            },
            {
              "internalType": "bool",
              "name": "isBurned",
              "type": "bool"
            },
            {
              "internalType": "address",
              "name": "walletAddr",
              "type": "address"
            }
          ],
          "internalType": "struct Sertifikat.EntitySertifikat[]",
          "name": "mahasiswa",
          "type": "tuple[]"
        }
      ],
      "stateMutability": "view",
      "type": "function"
    },
    {
      "inputs": [
        {
          "internalType": "uint256",
          "name": "tokenId",
          "type": "uint256"
        }
      ],
      "name": "getApproved",
      "outputs": [
        {
          "internalType": "address",
          "name": "",
          "type": "address"
        }
      ],
      "stateMutability": "view",
      "type": "function"
    },
    {
      "inputs": [
        {
          "internalType": "uint256",
          "name": "tokenId_",
          "type": "uint256"
        },
        {
          "internalType": "string",
          "name": "universitas_",
          "type": "string"
        }
      ],
      "name": "getSertifikat",
      "outputs": [
        {
          "components": [
            {
              "internalType": "string",
              "name": "nimMahasiswa",
              "type": "string"
            },
            {
              "internalType": "string",
              "name": "ninaMahasiswa",
              "type": "string"
            },
            {
              "internalType": "string",
              "name": "universitas",
              "type": "string"
            },
            {
              "internalType": "string",
              "name": "kodeProdi",
              "type": "string"
            },
            {
              "internalType": "bool",
              "name": "isBurned",
              "type": "bool"
            },
            {
              "internalType": "address",
              "name": "walletAddr",
              "type": "address"
            }
          ],
          "internalType": "struct Sertifikat.EntitySertifikat",
          "name": "mahasiswa",
          "type": "tuple"
        }
      ],
      "stateMutability": "view",
      "type": "function"
    },
    {
      "inputs": [
        {
          "internalType": "uint256",
          "name": "tokenId_",
          "type": "uint256"
        }
      ],
      "name": "hapusIjazah",
      "outputs": [],
      "stateMutability": "nonpayable",
      "type": "function"
    },
    {
      "inputs": [
        {
          "internalType": "address",
          "name": "owner",
          "type": "address"
        },
        {
          "internalType": "address",
          "name": "operator",
          "type": "address"
        }
      ],
      "name": "isApprovedForAll",
      "outputs": [
        {
          "internalType": "bool",
          "name": "",
          "type": "bool"
        }
      ],
      "stateMutability": "view",
      "type": "function"
    },
    {
      "inputs": [
        {
          "internalType": "string",
          "name": "uri_",
          "type": "string"
        },
        {
          "internalType": "string",
          "name": "nim_",
          "type": "string"
        },
        {
          "internalType": "string",
          "name": "nina_",
          "type": "string"
        },
        {
          "internalType": "string",
          "name": "universitas_",
          "type": "string"
        },
        {
          "internalType": "string",
          "name": "kodeProdi_",
          "type": "string"
        }
      ],
      "name": "mint",
      "outputs": [
        {
          "internalType": "uint256",
          "name": "",
          "type": "uint256"
        }
      ],
      "stateMutability": "nonpayable",
      "type": "function"
    },
    {
      "inputs": [],
      "name": "name",
      "outputs": [
        {
          "internalType": "string",
          "name": "",
          "type": "string"
        }
      ],
      "stateMutability": "view",
      "type": "function"
    },
    {
      "inputs": [
        {
          "internalType": "address",
          "name": "",
          "type": "address"
        },
        {
          "internalType": "address",
          "name": "",
          "type": "address"
        },
        {
          "internalType": "uint256",
          "name": "",
          "type": "uint256"
        },
        {
          "internalType": "bytes",
          "name": "",
          "type": "bytes"
        }
      ],
      "name": "onERC721Received",
      "outputs": [
        {
          "internalType": "bytes4",
          "name": "",
          "type": "bytes4"
        }
      ],
      "stateMutability": "pure",
      "type": "function"
    },
    {
      "inputs": [],
      "name": "owner",
      "outputs": [
        {
          "internalType": "address",
          "name": "",
          "type": "address"
        }
      ],
      "stateMutability": "view",
      "type": "function"
    },
    {
      "inputs": [
        {
          "internalType": "uint256",
          "name": "tokenId",
          "type": "uint256"
        }
      ],
      "name": "ownerOf",
      "outputs": [
        {
          "internalType": "address",
          "name": "",
          "type": "address"
        }
      ],
      "stateMutability": "view",
      "type": "function"
    },
    {
      "inputs": [],
      "name": "renounceOwnership",
      "outputs": [],
      "stateMutability": "nonpayable",
      "type": "function"
    },
    {
      "inputs": [
        {
          "internalType": "address",
          "name": "from",
          "type": "address"
        },
        {
          "internalType": "address",
          "name": "to",
          "type": "address"
        },
        {
          "internalType": "uint256",
          "name": "tokenId",
          "type": "uint256"
        }
      ],
      "name": "safeTransferFrom",
      "outputs": [],
      "stateMutability": "nonpayable",
      "type": "function"
    },
    {
      "inputs": [
        {
          "internalType": "address",
          "name": "from",
          "type": "address"
        },
        {
          "internalType": "address",
          "name": "to",
          "type": "address"
        },
        {
          "internalType": "uint256",
          "name": "tokenId",
          "type": "uint256"
        },
        {
          "internalType": "bytes",
          "name": "data",
          "type": "bytes"
        }
      ],
      "name": "safeTransferFrom",
      "outputs": [],
      "stateMutability": "nonpayable",
      "type": "function"
    },
    {
      "inputs": [
        {
          "internalType": "address",
          "name": "operator",
          "type": "address"
        },
        {
          "internalType": "bool",
          "name": "approved",
          "type": "bool"
        }
      ],
      "name": "setApprovalForAll",
      "outputs": [],
      "stateMutability": "nonpayable",
      "type": "function"
    },
    {
      "inputs": [
        {
          "internalType": "bytes4",
          "name": "interfaceId",
          "type": "bytes4"
        }
      ],
      "name": "supportsInterface",
      "outputs": [
        {
          "internalType": "bool",
          "name": "",
          "type": "bool"
        }
      ],
      "stateMutability": "view",
      "type": "function"
    },
    {
      "inputs": [],
      "name": "symbol",
      "outputs": [
        {
          "internalType": "string",
          "name": "",
          "type": "string"
        }
      ],
      "stateMutability": "view",
      "type": "function"
    },
    {
      "inputs": [
        {
          "internalType": "uint256",
          "name": "tokenId",
          "type": "uint256"
        }
      ],
      "name": "tokenURI",
      "outputs": [
        {
          "internalType": "string",
          "name": "",
          "type": "string"
        }
      ],
      "stateMutability": "view",
      "type": "function"
    },
    {
      "inputs": [
        {
          "internalType": "address",
          "name": "from",
          "type": "address"
        },
        {
          "internalType": "address",
          "name": "to",
          "type": "address"
        },
        {
          "internalType": "uint256",
          "name": "tokenId",
          "type": "uint256"
        }
      ],
      "name": "transferFrom",
      "outputs": [],
      "stateMutability": "nonpayable",
      "type": "function"
    },
    {
      "inputs": [
        {
          "internalType": "address",
          "name": "newOwner",
          "type": "address"
        }
      ],
      "name": "transferOwnership",
      "outputs": [],
      "stateMutability": "nonpayable",
      "type": "function"
    },
    {
      "inputs": [
        {
          "internalType": "address",
          "name": "to_",
          "type": "address"
        },
        {
          "internalType": "uint256",
          "name": "tokenId_",
          "type": "uint256"
        }
      ],
      "name": "transferSertifikat_",
      "outputs": [
        {
          "internalType": "bool",
          "name": "isTransferred",
          "type": "bool"
        }
      ],
      "stateMutability": "nonpayable",
      "type": "function"
    }
  ],
  "bytecode": {
    "object": "0x600a60809081526914d95c9d1a599a5ad85d60b21b60a052610100604052600460c0908152635352544b60e01b60e05260006200003d83826200018c565b5060016200004c82826200018c565b50505062000069620000636200009160201b60201c565b62000095565b600754600980546001600160a01b0319166001600160a01b0390921691909117905562000258565b3390565b600780546001600160a01b038381166001600160a01b0319831681179093556040519116919082907f8be0079c531659141344cd1fd0a4f28419497f9722a3daafe3b4186f6b6457e090600090a35050565b634e487b7160e01b600052604160045260246000fd5b600181811c908216806200011257607f821691505b6020821081036200013357634e487b7160e01b600052602260045260246000fd5b50919050565b601f8211156200018757600081815260208120601f850160051c81016020861015620001625750805b601f850160051c820191505b8181101562000183578281556001016200016e565b5050505b505050565b81516001600160401b03811115620001a857620001a8620000e7565b620001c081620001b98454620000fd565b8462000139565b602080601f831160018114620001f85760008415620001df5750858301515b600019600386901b1c1916600185901b17855562000183565b600085815260208120601f198616915b82811015620002295788860151825594840194600190910190840162000208565b5085821015620002485787850151600019600388901b60f8161c191681555b5050505050600190811b01905550565b61344380620002686000396000f3fe608060405234801561001057600080fd5b50600436106101825760003560e01c80637b3bcbaf116100d8578063b88d4fde1161008c578063e985e9c511610066578063e985e9c514610394578063f113be96146103dd578063f2fde38b146103fd57600080fd5b8063b88d4fde1461034e578063c87b56dd14610361578063e3e5b7491461037457600080fd5b80638da5cb5b116100bd5780638da5cb5b1461031557806395d89b4114610333578063a22cb4651461033b57600080fd5b80637b3bcbaf146102ef57806386833e911461030257600080fd5b8063150b7a021161013a5780636352211e116101145780636352211e146102b357806370a08231146102c6578063715018a6146102e757600080fd5b8063150b7a021461022457806323b872dd1461028d57806342842e0e146102a057600080fd5b8063081812fc1161016b578063081812fc146101c4578063095ea7b3146101fc578063119a38991461021157600080fd5b806301ffc9a71461018757806306fdde03146101af575b600080fd5b61019a61019536600461290a565b610410565b60405190151581526020015b60405180910390f35b6101b76104f5565b6040516101a6919061299d565b6101d76101d23660046129b0565b610587565b60405173ffffffffffffffffffffffffffffffffffffffff90911681526020016101a6565b61020f61020a3660046129f2565b6105bb565b005b61019a61021f3660046129f2565b61074c565b61025c610232366004612a65565b7f150b7a020000000000000000000000000000000000000000000000000000000095945050505050565b6040517fffffffff0000000000000000000000000000000000000000000000000000000090911681526020016101a6565b61020f61029b366004612ad4565b610920565b61020f6102ae366004612ad4565b6109c1565b6101d76102c13660046129b0565b6109dc565b6102d96102d4366004612b10565b610a68565b6040519081526020016101a6565b61020f610b36565b61020f6102fd3660046129b0565b610b4a565b6102d9610310366004612c0e565b610c0e565b60075473ffffffffffffffffffffffffffffffffffffffff166101d7565b6101b7610ec4565b61020f610349366004612ce4565b610ed3565b61020f61035c366004612d20565b610ee2565b6101b761036f3660046129b0565b610f8a565b610387610382366004612d9c565b61109a565b6040516101a69190612e7e565b61019a6103a2366004612e91565b73ffffffffffffffffffffffffffffffffffffffff918216600090815260056020908152604080832093909416825291909152205460ff1690565b6103f06103eb366004612ec4565b611465565b6040516101a69190612ef9565b61020f61040b366004612b10565b611765565b60007fffffffff0000000000000000000000000000000000000000000000000000000082167f80ac58cd0000000000000000000000000000000000000000000000000000000014806104a357507fffffffff0000000000000000000000000000000000000000000000000000000082167f5b5e139f00000000000000000000000000000000000000000000000000000000145b806104ef57507f01ffc9a7000000000000000000000000000000000000000000000000000000007fffffffff000000000000000000000000000000000000000000000000000000008316145b92915050565b60606000805461050490612f79565b80601f016020809104026020016040519081016040528092919081815260200182805461053090612f79565b801561057d5780601f106105525761010080835404028352916020019161057d565b820191906000526020600020905b81548152906001019060200180831161056057829003601f168201915b5050505050905090565b60006105928261181c565b5060009081526004602052604090205473ffffffffffffffffffffffffffffffffffffffff1690565b60006105c6826109dc565b90508073ffffffffffffffffffffffffffffffffffffffff168373ffffffffffffffffffffffffffffffffffffffff1603610688576040517f08c379a000000000000000000000000000000000000000000000000000000000815260206004820152602160248201527f4552433732313a20617070726f76616c20746f2063757272656e74206f776e6560448201527f720000000000000000000000000000000000000000000000000000000000000060648201526084015b60405180910390fd5b3373ffffffffffffffffffffffffffffffffffffffff821614806106b157506106b181336103a2565b61073d576040517f08c379a000000000000000000000000000000000000000000000000000000000815260206004820152603d60248201527f4552433732313a20617070726f76652063616c6c6572206973206e6f7420746f60448201527f6b656e206f776e6572206f7220617070726f76656420666f7220616c6c000000606482015260840161067f565b61074783836118a7565b505050565b73ffffffffffffffffffffffffffffffffffffffff82166000908152600a6020526040812054600111610801576040517f08c379a000000000000000000000000000000000000000000000000000000000815260206004820152602360248201527f736572746966696b61742068616e79612064697465726269746b616e2031206b60448201527f616c690000000000000000000000000000000000000000000000000000000000606482015260840161067f565b6000828152600b602052604090206004015460ff161561087d576040517f08c379a000000000000000000000000000000000000000000000000000000000815260206004820152601860248201527f696a617a616820737564616820746964616b2076616c69640000000000000000604482015260640161067f565b6009546108a19073ffffffffffffffffffffffffffffffffffffffff168484611947565b6000828152600b6020908152604080832060040180547fffffffffffffffffffffff0000000000000000000000000000000000000000ff1661010073ffffffffffffffffffffffffffffffffffffffff8916908102919091179091558352600a909152812080549161091283612fcc565b909155506001949350505050565b61092a3382611c42565b6109b6576040517f08c379a000000000000000000000000000000000000000000000000000000000815260206004820152602d60248201527f4552433732313a2063616c6c6572206973206e6f7420746f6b656e206f776e6560448201527f72206f7220617070726f76656400000000000000000000000000000000000000606482015260840161067f565b610747838383611947565b61074783838360405180602001604052806000815250610ee2565b60008181526002602052604081205473ffffffffffffffffffffffffffffffffffffffff16806104ef576040517f08c379a000000000000000000000000000000000000000000000000000000000815260206004820152601860248201527f4552433732313a20696e76616c696420746f6b656e2049440000000000000000604482015260640161067f565b600073ffffffffffffffffffffffffffffffffffffffff8216610b0d576040517f08c379a000000000000000000000000000000000000000000000000000000000815260206004820152602960248201527f4552433732313a2061646472657373207a65726f206973206e6f74206120766160448201527f6c6964206f776e65720000000000000000000000000000000000000000000000606482015260840161067f565b5073ffffffffffffffffffffffffffffffffffffffff1660009081526003602052604090205490565b610b3e611d01565b610b486000611d82565b565b610b52611d01565b6009546000828152600b6020526040902060040154610100900473ffffffffffffffffffffffffffffffffffffffff908116911614610bc9576000818152600b6020526040902060040154600954610bc99173ffffffffffffffffffffffffffffffffffffffff6101009091048116911683611947565b610bd281611df9565b6000908152600b6020526040902060040180547fffffffffffffffffffffffffffffffffffffffffffffffffffffffffffffff00166001179055565b6000610c1e600880546001019055565b6000610c2960085490565b600954909150610c4f9073ffffffffffffffffffffffffffffffffffffffff1682611e39565b610c8f8189898080601f016020809104026020016040519081016040528093929190818152602001838380828437600092019190915250611e5392505050565b6000818152600b60205260409020610ca78782613079565b506000818152600b60205260409020600101610cc38682613079565b506000818152600b60205260409020600201610cdf8582613079565b506000818152600b602052604090206004810180547fffffffffffffffffffffffffffffffffffffffffffffffffffffffffffffff00169055600301610d258482613079565b506009546000828152600b602052604090819020600401805473ffffffffffffffffffffffffffffffffffffffff909316610100027fffffffffffffffffffffff0000000000000000000000000000000000000000ff9093169290921790915551600c90610d94908690613193565b90815260408051602092819003830190206000848152600b845291822081546001810183559183529290912060059091020180610dd183826131af565b50600181810190610de4908401826131af565b50600281810190610df7908401826131af565b50600381810190610e0a908401826131af565b506004918201805491909201805460ff90921615157fffffffffffffffffffffffffffffffffffffffffffffffffffffffffffffff00831681178255925473ffffffffffffffffffffffffffffffffffffffff6101009182900416027fffffffffffffffffffffff0000000000000000000000000000000000000000ff9093167fffffffffffffffffffffff0000000000000000000000000000000000000000009092169190911791909117905590509695505050505050565b60606001805461050490612f79565b610ede338383611f1c565b5050565b610eec3383611c42565b610f78576040517f08c379a000000000000000000000000000000000000000000000000000000000815260206004820152602d60248201527f4552433732313a2063616c6c6572206973206e6f7420746f6b656e206f776e6560448201527f72206f7220617070726f76656400000000000000000000000000000000000000606482015260840161067f565b610f8484848484612049565b50505050565b6060610f958261181c565b60008281526006602052604081208054610fae90612f79565b80601f0160208091040260200160405190810160405280929190818152602001828054610fda90612f79565b80156110275780601f10610ffc57610100808354040283529160200191611027565b820191906000526020600020905b81548152906001019060200180831161100a57829003601f168201915b50505050509050600061104560408051602081019091526000815290565b90508051600003611057575092915050565b8151156110895780826040516020016110719291906132e4565b60405160208183030381529060405292505050919050565b611092846120ec565b949350505050565b6110eb6040518060c0016040528060608152602001606081526020016060815260200160608152602001600015158152602001600073ffffffffffffffffffffffffffffffffffffffff1681525090565b816040516020016110fc9190613193565b604080517fffffffffffffffffffffffffffffffffffffffffffffffffffffffffffffffe081840301815282825280516020918201206000878152600b835292909220919261114f926002019101613313565b60405160208183030381529060405280519060200120146111cc576040517f08c379a000000000000000000000000000000000000000000000000000000000815260206004820152601860248201527f756e69766572736974617320746964616b207365737561690000000000000000604482015260640161067f565b6000838152600b602052604090819020815160c081019092528054829082906111f490612f79565b80601f016020809104026020016040519081016040528092919081815260200182805461122090612f79565b801561126d5780601f106112425761010080835404028352916020019161126d565b820191906000526020600020905b81548152906001019060200180831161125057829003601f168201915b5050505050815260200160018201805461128690612f79565b80601f01602080910402602001604051908101604052809291908181526020018280546112b290612f79565b80156112ff5780601f106112d4576101008083540402835291602001916112ff565b820191906000526020600020905b8154815290600101906020018083116112e257829003601f168201915b5050505050815260200160028201805461131890612f79565b80601f016020809104026020016040519081016040528092919081815260200182805461134490612f79565b80156113915780601f1061136657610100808354040283529160200191611391565b820191906000526020600020905b81548152906001019060200180831161137457829003601f168201915b505050505081526020016003820180546113aa90612f79565b80601f01602080910402602001604051908101604052809291908181526020018280546113d690612f79565b80156114235780601f106113f857610100808354040283529160200191611423565b820191906000526020600020905b81548152906001019060200180831161140657829003601f168201915b50505091835250506004919091015460ff811615156020830152610100900473ffffffffffffffffffffffffffffffffffffffff166040909101529392505050565b6060600c826040516114779190613193565b9081526020016040518091039020805480602002602001604051908101604052809291908181526020016000905b8282101561175a57838290600052602060002090600502016040518060c00160405290816000820180546114d890612f79565b80601f016020809104026020016040519081016040528092919081815260200182805461150490612f79565b80156115515780601f1061152657610100808354040283529160200191611551565b820191906000526020600020905b81548152906001019060200180831161153457829003601f168201915b5050505050815260200160018201805461156a90612f79565b80601f016020809104026020016040519081016040528092919081815260200182805461159690612f79565b80156115e35780601f106115b8576101008083540402835291602001916115e3565b820191906000526020600020905b8154815290600101906020018083116115c657829003601f168201915b505050505081526020016002820180546115fc90612f79565b80601f016020809104026020016040519081016040528092919081815260200182805461162890612f79565b80156116755780601f1061164a57610100808354040283529160200191611675565b820191906000526020600020905b81548152906001019060200180831161165857829003601f168201915b5050505050815260200160038201805461168e90612f79565b80601f01602080910402602001604051908101604052809291908181526020018280546116ba90612f79565b80156117075780601f106116dc57610100808354040283529160200191611707565b820191906000526020600020905b8154815290600101906020018083116116ea57829003601f168201915b50505091835250506004919091015460ff8116151560208084019190915261010090910473ffffffffffffffffffffffffffffffffffffffff1660409092019190915290825260019290920191016114a5565b505050509050919050565b61176d611d01565b73ffffffffffffffffffffffffffffffffffffffff8116611810576040517f08c379a000000000000000000000000000000000000000000000000000000000815260206004820152602660248201527f4f776e61626c653a206e6577206f776e657220697320746865207a65726f206160448201527f6464726573730000000000000000000000000000000000000000000000000000606482015260840161067f565b61181981611d82565b50565b60008181526002602052604090205473ffffffffffffffffffffffffffffffffffffffff16611819576040517f08c379a000000000000000000000000000000000000000000000000000000000815260206004820152601860248201527f4552433732313a20696e76616c696420746f6b656e2049440000000000000000604482015260640161067f565b600081815260046020526040902080547fffffffffffffffffffffffff00000000000000000000000000000000000000001673ffffffffffffffffffffffffffffffffffffffff84169081179091558190611901826109dc565b73ffffffffffffffffffffffffffffffffffffffff167f8c5be1e5ebec7d5bd14f71427d1e84f3dd0314c0f7b2291e5b200ac8c7c3b92560405160405180910390a45050565b8273ffffffffffffffffffffffffffffffffffffffff16611967826109dc565b73ffffffffffffffffffffffffffffffffffffffff1614611a0a576040517f08c379a000000000000000000000000000000000000000000000000000000000815260206004820152602560248201527f4552433732313a207472616e736665722066726f6d20696e636f72726563742060448201527f6f776e6572000000000000000000000000000000000000000000000000000000606482015260840161067f565b73ffffffffffffffffffffffffffffffffffffffff8216611aac576040517f08c379a0000000000000000000000000000000000000000000000000000000008152602060048201526024808201527f4552433732313a207472616e7366657220746f20746865207a65726f2061646460448201527f7265737300000000000000000000000000000000000000000000000000000000606482015260840161067f565b8273ffffffffffffffffffffffffffffffffffffffff16611acc826109dc565b73ffffffffffffffffffffffffffffffffffffffff1614611b6f576040517f08c379a000000000000000000000000000000000000000000000000000000000815260206004820152602560248201527f4552433732313a207472616e736665722066726f6d20696e636f72726563742060448201527f6f776e6572000000000000000000000000000000000000000000000000000000606482015260840161067f565b600081815260046020908152604080832080547fffffffffffffffffffffffff000000000000000000000000000000000000000090811690915573ffffffffffffffffffffffffffffffffffffffff8781168086526003855283862080547fffffffffffffffffffffffffffffffffffffffffffffffffffffffffffffffff01905590871680865283862080546001019055868652600290945282852080549092168417909155905184937fddf252ad1be2c89b69c2b068fc378daa952ba7f163c4a11628f55a4df523b3ef91a4505050565b600080611c4e836109dc565b90508073ffffffffffffffffffffffffffffffffffffffff168473ffffffffffffffffffffffffffffffffffffffff161480611cbc575073ffffffffffffffffffffffffffffffffffffffff80821660009081526005602090815260408083209388168352929052205460ff165b8061109257508373ffffffffffffffffffffffffffffffffffffffff16611ce284610587565b73ffffffffffffffffffffffffffffffffffffffff1614949350505050565b60075473ffffffffffffffffffffffffffffffffffffffff163314610b48576040517f08c379a000000000000000000000000000000000000000000000000000000000815260206004820181905260248201527f4f776e61626c653a2063616c6c6572206973206e6f7420746865206f776e6572604482015260640161067f565b6007805473ffffffffffffffffffffffffffffffffffffffff8381167fffffffffffffffffffffffff0000000000000000000000000000000000000000831681179093556040519116919082907f8be0079c531659141344cd1fd0a4f28419497f9722a3daafe3b4186f6b6457e090600090a35050565b611e0281612160565b60008181526006602052604090208054611e1b90612f79565b1590506118195760008181526006602052604081206118199161288e565b610ede828260405180602001604052806000815250612238565b60008281526002602052604090205473ffffffffffffffffffffffffffffffffffffffff16611f04576040517f08c379a000000000000000000000000000000000000000000000000000000000815260206004820152602e60248201527f45524337323155524953746f726167653a2055524920736574206f66206e6f6e60448201527f6578697374656e7420746f6b656e000000000000000000000000000000000000606482015260840161067f565b60008281526006602052604090206107478282613079565b8173ffffffffffffffffffffffffffffffffffffffff168373ffffffffffffffffffffffffffffffffffffffff1603611fb1576040517f08c379a000000000000000000000000000000000000000000000000000000000815260206004820152601960248201527f4552433732313a20617070726f766520746f2063616c6c657200000000000000604482015260640161067f565b73ffffffffffffffffffffffffffffffffffffffff83811660008181526005602090815260408083209487168084529482529182902080547fffffffffffffffffffffffffffffffffffffffffffffffffffffffffffffff001686151590811790915591519182527f17307eab39ab6107e8899845ad3d59bd9653f200f220920489ca2b5937696c31910160405180910390a3505050565b612054848484611947565b612060848484846122db565b610f84576040517f08c379a000000000000000000000000000000000000000000000000000000000815260206004820152603260248201527f4552433732313a207472616e7366657220746f206e6f6e20455243373231526560448201527f63656976657220696d706c656d656e7465720000000000000000000000000000606482015260840161067f565b60606120f78261181c565b600061210e60408051602081019091526000815290565b9050600081511161212e5760405180602001604052806000815250612159565b80612138846124ce565b6040516020016121499291906132e4565b6040516020818303038152906040525b9392505050565b600061216b826109dc565b9050612176826109dc565b600083815260046020908152604080832080547fffffffffffffffffffffffff000000000000000000000000000000000000000090811690915573ffffffffffffffffffffffffffffffffffffffff85168085526003845282852080547fffffffffffffffffffffffffffffffffffffffffffffffffffffffffffffffff0190558785526002909352818420805490911690555192935084927fddf252ad1be2c89b69c2b068fc378daa952ba7f163c4a11628f55a4df523b3ef908390a45050565b6122428383612669565b61224f60008484846122db565b610747576040517f08c379a000000000000000000000000000000000000000000000000000000000815260206004820152603260248201527f4552433732313a207472616e7366657220746f206e6f6e20455243373231526560448201527f63656976657220696d706c656d656e7465720000000000000000000000000000606482015260840161067f565b600073ffffffffffffffffffffffffffffffffffffffff84163b156124c3576040517f150b7a0200000000000000000000000000000000000000000000000000000000815273ffffffffffffffffffffffffffffffffffffffff85169063150b7a02906123529033908990889088906004016133a7565b6020604051808303816000875af19250505080156123ab575060408051601f3d9081017fffffffffffffffffffffffffffffffffffffffffffffffffffffffffffffffe01682019092526123a8918101906133f0565b60015b612478573d8080156123d9576040519150601f19603f3d011682016040523d82523d6000602084013e6123de565b606091505b508051600003612470576040517f08c379a000000000000000000000000000000000000000000000000000000000815260206004820152603260248201527f4552433732313a207472616e7366657220746f206e6f6e20455243373231526560448201527f63656976657220696d706c656d656e7465720000000000000000000000000000606482015260840161067f565b805181602001fd5b7fffffffff00000000000000000000000000000000000000000000000000000000167f150b7a0200000000000000000000000000000000000000000000000000000000149050611092565b506001949350505050565b60606001827a184f03e93ff9f4daa797ed6e38ed64bf6a1f010000000000000000811061251b57604091909101907a184f03e93ff9f4daa797ed6e38ed64bf6a1f01000000000000000090045b6d04ee2d6d415b85acef8100000000811061254957602091909101906d04ee2d6d415b85acef810000000090045b662386f26fc1000081106125695760109190910190662386f26fc1000090045b6305f5e100811061258357600891909101906305f5e10090045b6127108110612599576004919091019061271090045b606481106125ad5760029190910190606490045b600a81106125bc576001820191505b60008267ffffffffffffffff8111156125d7576125d7612b2b565b6040519080825280601f01601f191660200182016040528015612601576020820181803683370190505b5090508281016020015b7fffffffffffffffffffffffffffffffffffffffffffffffffffffffffffffffff017f3031323334353637383961626364656600000000000000000000000000000000600a87061a8153600a860495508561260b5750949350505050565b73ffffffffffffffffffffffffffffffffffffffff82166126e6576040517f08c379a000000000000000000000000000000000000000000000000000000000815260206004820181905260248201527f4552433732313a206d696e7420746f20746865207a65726f2061646472657373604482015260640161067f565b60008181526002602052604090205473ffffffffffffffffffffffffffffffffffffffff1615612772576040517f08c379a000000000000000000000000000000000000000000000000000000000815260206004820152601c60248201527f4552433732313a20746f6b656e20616c7265616479206d696e74656400000000604482015260640161067f565b60008181526002602052604090205473ffffffffffffffffffffffffffffffffffffffff16156127fe576040517f08c379a000000000000000000000000000000000000000000000000000000000815260206004820152601c60248201527f4552433732313a20746f6b656e20616c7265616479206d696e74656400000000604482015260640161067f565b73ffffffffffffffffffffffffffffffffffffffff8216600081815260036020908152604080832080546001019055848352600290915280822080547fffffffffffffffffffffffff0000000000000000000000000000000000000000168417905551839291907fddf252ad1be2c89b69c2b068fc378daa952ba7f163c4a11628f55a4df523b3ef908290a45050565b50805461289a90612f79565b6000825580601f106128aa575050565b601f01602090049060005260206000209081019061181991905b808211156128d857600081556001016128c4565b5090565b7fffffffff000000000000000000000000000000000000000000000000000000008116811461181957600080fd5b60006020828403121561291c57600080fd5b8135612159816128dc565b60005b8381101561294257818101518382015260200161292a565b83811115610f845750506000910152565b6000815180845261296b816020860160208601612927565b601f017fffffffffffffffffffffffffffffffffffffffffffffffffffffffffffffffe0169290920160200192915050565b6020815260006121596020830184612953565b6000602082840312156129c257600080fd5b5035919050565b803573ffffffffffffffffffffffffffffffffffffffff811681146129ed57600080fd5b919050565b60008060408385031215612a0557600080fd5b612a0e836129c9565b946020939093013593505050565b60008083601f840112612a2e57600080fd5b50813567ffffffffffffffff811115612a4657600080fd5b602083019150836020828501011115612a5e57600080fd5b9250929050565b600080600080600060808688031215612a7d57600080fd5b612a86866129c9565b9450612a94602087016129c9565b935060408601359250606086013567ffffffffffffffff811115612ab757600080fd5b612ac388828901612a1c565b969995985093965092949392505050565b600080600060608486031215612ae957600080fd5b612af2846129c9565b9250612b00602085016129c9565b9150604084013590509250925092565b600060208284031215612b2257600080fd5b612159826129c9565b7f4e487b7100000000000000000000000000000000000000000000000000000000600052604160045260246000fd5b600067ffffffffffffffff80841115612b7557612b75612b2b565b604051601f85017fffffffffffffffffffffffffffffffffffffffffffffffffffffffffffffffe0908116603f01168101908282118183101715612bbb57612bbb612b2b565b81604052809350858152868686011115612bd457600080fd5b858560208301376000602087830101525050509392505050565b600082601f830112612bff57600080fd5b61215983833560208501612b5a565b60008060008060008060a08789031215612c2757600080fd5b863567ffffffffffffffff80821115612c3f57600080fd5b612c4b8a838b01612a1c565b90985096506020890135915080821115612c6457600080fd5b612c708a838b01612bee565b95506040890135915080821115612c8657600080fd5b612c928a838b01612bee565b94506060890135915080821115612ca857600080fd5b612cb48a838b01612bee565b93506080890135915080821115612cca57600080fd5b50612cd789828a01612bee565b9150509295509295509295565b60008060408385031215612cf757600080fd5b612d00836129c9565b915060208301358015158114612d1557600080fd5b809150509250929050565b60008060008060808587031215612d3657600080fd5b612d3f856129c9565b9350612d4d602086016129c9565b925060408501359150606085013567ffffffffffffffff811115612d7057600080fd5b8501601f81018713612d8157600080fd5b612d9087823560208401612b5a565b91505092959194509250565b60008060408385031215612daf57600080fd5b82359150602083013567ffffffffffffffff811115612dcd57600080fd5b612dd985828601612bee565b9150509250929050565b6000815160c08452612df860c0850182612953565b905060208301518482036020860152612e118282612953565b91505060408301518482036040860152612e2b8282612953565b91505060608301518482036060860152612e458282612953565b91505060808301511515608085015273ffffffffffffffffffffffffffffffffffffffff60a08401511660a08501528091505092915050565b6020815260006121596020830184612de3565b60008060408385031215612ea457600080fd5b612ead836129c9565b9150612ebb602084016129c9565b90509250929050565b600060208284031215612ed657600080fd5b813567ffffffffffffffff811115612eed57600080fd5b61109284828501612bee565b6000602080830181845280855180835260408601915060408160051b870101925083870160005b82811015612f6c577fffffffffffffffffffffffffffffffffffffffffffffffffffffffffffffffc0888603018452612f5a858351612de3565b94509285019290850190600101612f20565b5092979650505050505050565b600181811c90821680612f8d57607f821691505b602082108103612fc6577f4e487b7100000000000000000000000000000000000000000000000000000000600052602260045260246000fd5b50919050565b60007fffffffffffffffffffffffffffffffffffffffffffffffffffffffffffffffff8203613024577f4e487b7100000000000000000000000000000000000000000000000000000000600052601160045260246000fd5b5060010190565b601f82111561074757600081815260208120601f850160051c810160208610156130525750805b601f850160051c820191505b818110156130715782815560010161305e565b505050505050565b815167ffffffffffffffff81111561309357613093612b2b565b6130a7816130a18454612f79565b8461302b565b602080601f8311600181146130fa57600084156130c45750858301515b7fffffffffffffffffffffffffffffffffffffffffffffffffffffffffffffffff600386901b1c1916600185901b178555613071565b6000858152602081207fffffffffffffffffffffffffffffffffffffffffffffffffffffffffffffffe08616915b8281101561314757888601518255948401946001909101908401613128565b508582101561318357878501517fffffffffffffffffffffffffffffffffffffffffffffffffffffffffffffffff600388901b60f8161c191681555b5050505050600190811b01905550565b600082516131a5818460208701612927565b9190910192915050565b8181036131ba575050565b6131c48254612f79565b67ffffffffffffffff8111156131dc576131dc612b2b565b6131ea816130a18454612f79565b6000601f82116001811461323c57600083156132065750848201545b7fffffffffffffffffffffffffffffffffffffffffffffffffffffffffffffffff600385901b1c1916600184901b1784556132dd565b6000858152602090207fffffffffffffffffffffffffffffffffffffffffffffffffffffffffffffffe0841690600086815260209020845b838110156132945782860154825560019586019590910190602001613274565b50858310156132d057818501547fffffffffffffffffffffffffffffffffffffffffffffffffffffffffffffffff600388901b60f8161c191681555b50505060018360011b0184555b5050505050565b600083516132f6818460208801612927565b83519083019061330a818360208801612927565b01949350505050565b600080835461332181612f79565b60018281168015613339576001811461336c5761339b565b7fffffffffffffffffffffffffffffffffffffffffffffffffffffffffffffff008416875282151583028701945061339b565b8760005260208060002060005b858110156133925781548a820152908401908201613379565b50505082870194505b50929695505050505050565b600073ffffffffffffffffffffffffffffffffffffffff8087168352808616602084015250836040830152608060608301526133e66080830184612953565b9695505050505050565b60006020828403121561340257600080fd5b8151612159816128dc56fea264697066735822122058cf6a676a35b93edcd50eec330019e825cee6c24dcd2faa3e33592c8c3b550564736f6c634300080f0033",
    "linkReferences": {}
  },
  "methodIdentifiers": {
    "approve(address,uint256)": "095ea7b3",
    "balanceOf(address)": "70a08231",
    "getAllSertifikat(string)": "f113be96",
    "getApproved(uint256)": "081812fc",
    "getSertifikat(uint256,string)": "e3e5b749",
    "hapusIjazah(uint256)": "7b3bcbaf",
    "isApprovedForAll(address,address)": "e985e9c5",
    "mint(string,string,string,string,string)": "86833e91",
    "name()": "06fdde03",
    "onERC721Received(address,address,uint256,bytes)": "150b7a02",
    "owner()": "8da5cb5b",
    "ownerOf(uint256)": "6352211e",
    "renounceOwnership()": "715018a6",
    "safeTransferFrom(address,address,uint256)": "42842e0e",
    "safeTransferFrom(address,address,uint256,bytes)": "b88d4fde",
    "setApprovalForAll(address,bool)": "a22cb465",
    "supportsInterface(bytes4)": "01ffc9a7",
    "symbol()": "95d89b41",
    "tokenURI(uint256)": "c87b56dd",
    "transferFrom(address,address,uint256)": "23b872dd",
    "transferOwnership(address)": "f2fde38b",
    "transferSertifikat_(address,uint256)": "119a3899"
  },
  "id": 22
}